{
  "_format": "hh-sol-artifact-1",
  "contractName": "EPrescription",
  "sourceName": "contracts/EPrescription.sol",
  "abi": [
    {
      "anonymous": false,
      "inputs": [
        {
          "indexed": true,
          "internalType": "bytes32",
          "name": "id",
          "type": "bytes32"
        },
        {
          "indexed": true,
          "internalType": "address",
          "name": "doctor",
          "type": "address"
        },
        {
          "indexed": true,
          "internalType": "address",
          "name": "patient",
          "type": "address"
        }
      ],
      "name": "PrescriptionCreated",
      "type": "event"
    },
    {
      "inputs": [
        {
          "internalType": "address",
          "name": "patient",
          "type": "address"
        },
        {
          "internalType": "string",
          "name": "medication",
          "type": "string"
        }
      ],
      "name": "createPrescription",
      "outputs": [
        {
          "internalType": "bytes32",
          "name": "",
          "type": "bytes32"
        }
      ],
      "stateMutability": "nonpayable",
      "type": "function"
    },
    {
      "inputs": [
        {
          "internalType": "bytes32",
          "name": "id",
          "type": "bytes32"
        }
      ],
      "name": "invalidatePrescription",
      "outputs": [],
      "stateMutability": "nonpayable",
      "type": "function"
    },
    {
      "inputs": [
        {
          "internalType": "bytes32",
          "name": "",
          "type": "bytes32"
        }
      ],
      "name": "prescriptions",
      "outputs": [
        {
          "internalType": "address",
          "name": "doctor",
          "type": "address"
        },
        {
          "internalType": "address",
          "name": "patient",
          "type": "address"
        },
        {
          "internalType": "string",
          "name": "medication",
          "type": "string"
        },
        {
          "internalType": "uint256",
          "name": "timestamp",
          "type": "uint256"
        },
        {
          "internalType": "bool",
          "name": "isValid",
          "type": "bool"
        }
      ],
      "stateMutability": "view",
      "type": "function"
    },
    {
      "inputs": [
        {
          "internalType": "bytes32",
          "name": "id",
          "type": "bytes32"
        }
      ],
      "name": "verifyPrescription",
      "outputs": [
        {
          "internalType": "bool",
          "name": "",
          "type": "bool"
        }
      ],
      "stateMutability": "view",
      "type": "function"
    }
  ],
  "bytecode": "0x6080604052348015600f57600080fd5b50610cc88061001f6000396000f3fe608060405234801561001057600080fd5b506004361061004c5760003560e01c806349250fd0146100515780637b464e931461006d5780638a49b9cb146100a1578063f971f3f1146100d1575b600080fd5b61006b60048036038101906100669190610563565b610101565b005b61008760048036038101906100829190610563565b6101d5565b604051610098959493929190610695565b60405180910390f35b6100bb60048036038101906100b69190610780565b6102e0565b6040516100c891906107ef565b60405180910390f35b6100eb60048036038101906100e69190610563565b6104f7565b6040516100f8919061080a565b60405180910390f35b60008082815260200190815260200160002060000160009054906101000a900473ffffffffffffffffffffffffffffffffffffffff1673ffffffffffffffffffffffffffffffffffffffff163373ffffffffffffffffffffffffffffffffffffffff16146101a4576040517f08c379a000000000000000000000000000000000000000000000000000000000815260040161019b90610871565b60405180910390fd5b600080600083815260200190815260200160002060040160006101000a81548160ff02191690831515021790555050565b60006020528060005260406000206000915090508060000160009054906101000a900473ffffffffffffffffffffffffffffffffffffffff16908060010160009054906101000a900473ffffffffffffffffffffffffffffffffffffffff1690806002018054610244906108c0565b80601f0160208091040260200160405190810160405280929190818152602001828054610270906108c0565b80156102bd5780601f10610292576101008083540402835291602001916102bd565b820191906000526020600020905b8154815290600101906020018083116102a057829003601f168201915b5050505050908060030154908060040160009054906101000a900460ff16905085565b60008033858585426040516020016102fc959493929190610999565b6040516020818303038152906040528051906020012090506040518060a001604052803373ffffffffffffffffffffffffffffffffffffffff1681526020018673ffffffffffffffffffffffffffffffffffffffff16815260200185858080601f016020809104026020016040519081016040528093929190818152602001838380828437600081840152601f19601f8201169050808301925050505050505081526020014281526020016001151581525060008083815260200190815260200160002060008201518160000160006101000a81548173ffffffffffffffffffffffffffffffffffffffff021916908373ffffffffffffffffffffffffffffffffffffffff16021790555060208201518160010160006101000a81548173ffffffffffffffffffffffffffffffffffffffff021916908373ffffffffffffffffffffffffffffffffffffffff16021790555060408201518160020190816104639190610bc0565b506060820151816003015560808201518160040160006101000a81548160ff0219169083151502179055509050508473ffffffffffffffffffffffffffffffffffffffff163373ffffffffffffffffffffffffffffffffffffffff16827f0f70e4ac2ad44d3f0fc4054326f00dc27a09abc5aff8f00241e8fdf3a056a75860405160405180910390a4809150509392505050565b600080600083815260200190815260200160002060040160009054906101000a900460ff169050919050565b600080fd5b600080fd5b6000819050919050565b6105408161052d565b811461054b57600080fd5b50565b60008135905061055d81610537565b92915050565b60006020828403121561057957610578610523565b5b60006105878482850161054e565b91505092915050565b600073ffffffffffffffffffffffffffffffffffffffff82169050919050565b60006105bb82610590565b9050919050565b6105cb816105b0565b82525050565b600081519050919050565b600082825260208201905092915050565b60005b8381101561060b5780820151818401526020810190506105f0565b60008484015250505050565b6000601f19601f8301169050919050565b6000610633826105d1565b61063d81856105dc565b935061064d8185602086016105ed565b61065681610617565b840191505092915050565b6000819050919050565b61067481610661565b82525050565b60008115159050919050565b61068f8161067a565b82525050565b600060a0820190506106aa60008301886105c2565b6106b760208301876105c2565b81810360408301526106c98186610628565b90506106d8606083018561066b565b6106e56080830184610686565b9695505050505050565b6106f8816105b0565b811461070357600080fd5b50565b600081359050610715816106ef565b92915050565b600080fd5b600080fd5b600080fd5b60008083601f8401126107405761073f61071b565b5b8235905067ffffffffffffffff81111561075d5761075c610720565b5b60208301915083600182028301111561077957610778610725565b5b9250929050565b60008060006040848603121561079957610798610523565b5b60006107a786828701610706565b935050602084013567ffffffffffffffff8111156107c8576107c7610528565b5b6107d48682870161072a565b92509250509250925092565b6107e98161052d565b82525050565b600060208201905061080460008301846107e0565b92915050565b600060208201905061081f6000830184610686565b92915050565b7f556e617574686f72697a65640000000000000000000000000000000000000000600082015250565b600061085b600c836105dc565b915061086682610825565b602082019050919050565b6000602082019050818103600083015261088a8161084e565b9050919050565b7f4e487b7100000000000000000000000000000000000000000000000000000000600052602260045260246000fd5b600060028204905060018216806108d857607f821691505b6020821081036108eb576108ea610891565b5b50919050565b60008160601b9050919050565b6000610909826108f1565b9050919050565b600061091b826108fe565b9050919050565b61093361092e826105b0565b610910565b82525050565b600081905092915050565b82818337600083830152505050565b600061095f8385610939565b935061096c838584610944565b82840190509392505050565b6000819050919050565b61099361098e82610661565b610978565b82525050565b60006109a58288610922565b6014820191506109b58287610922565b6014820191506109c6828587610953565b91506109d28284610982565b6020820191508190509695505050505050565b7f4e487b7100000000000000000000000000000000000000000000000000000000600052604160045260246000fd5b60008190508160005260206000209050919050565b60006020601f8301049050919050565b600082821b905092915050565b600060088302610a767fffffffffffffffffffffffffffffffffffffffffffffffffffffffffffffffff82610a39565b610a808683610a39565b95508019841693508086168417925050509392505050565b6000819050919050565b6000610abd610ab8610ab384610661565b610a98565b610661565b9050919050565b6000819050919050565b610ad783610aa2565b610aeb610ae382610ac4565b848454610a46565b825550505050565b600090565b610b00610af3565b610b0b818484610ace565b505050565b5b81811015610b2f57610b24600082610af8565b600181019050610b11565b5050565b601f821115610b7457610b4581610a14565b610b4e84610a29565b81016020851015610b5d578190505b610b71610b6985610a29565b830182610b10565b50505b505050565b600082821c905092915050565b6000610b9760001984600802610b79565b1980831691505092915050565b6000610bb08383610b86565b9150826002028217905092915050565b610bc9826105d1565b67ffffffffffffffff811115610be257610be16109e5565b5b610bec82546108c0565b610bf7828285610b33565b600060209050601f831160018114610c2a5760008415610c18578287015190505b610c228582610ba4565b865550610c8a565b601f198416610c3886610a14565b60005b82811015610c6057848901518255600182019150602085019450602081019050610c3b565b86831015610c7d5784890151610c79601f891682610b86565b8355505b6001600288020188555050505b50505050505056fea264697066735822122058805878d7d56c7ac555f31fa2f8de83fca46413cef945bd2127ab8e5f0c8a5d64736f6c634300081c0033",
  "linkReferences": {},
  "deployedLinkReferences": {}
}